:020000040000FA
:100000000C9462000C948A000C948A000C948A0070
:100010000C948A000C948A000C948A000C948A0038
:100020000C948A000C948A000C948A000C948A0028
:100030000C948A000C948A000C948A000C948A0018
:100040000C94CE050C948A000C949C050C947605B7
:100050000C948A000C948A000C948A000C948A00F8
:100060000C9418060C948A0000000000240027005D
:100070002A0000000000250028002B0000000000DE
:1000800023002600290004040404040404040202DA
:100090000202020203030303030301020408102007
:1000A0004080010204081020010204081020000012
:1000B0000008000201000003040700000000000027
:1000C0000000330711241FBECFEFD8E0DEBFCDBF45
:1000D00011E0A0E0B1E0EEE6F4E102C005900D927F
:1000E000AA36B107D9F723E0AAE6B1E001C01D9214
:1000F000A830B207E1F710E0C2E6D0E004C02197D3
:10010000FE010E942F0AC136D107C9F70E94EA07F3
:100110000C94350A0C94000096E0899FD0011124BC
:10012000A756BD4F90967C936E935F9791E0919602
:100130009C939197E0910603F0910703909105033A
:10014000992339F0309751F0811108C08091B502A0
:100150000994309719F05C968C91FACF0895AF927C
:10016000BF92CF92DF92EF92FF920F931F93CF93A4
:10017000DF936C017B018B01040F151FEB015E0106
:10018000AE18BF08C017D10759F06991D601ED919B
:10019000FC910190F081E02DC6010995892B79F73A
:1001A000C501DF91CF911F910F91FF90EF90DF90EC
:1001B000CF90BF90AF900895FC01538D448D252FB3
:1001C00030E0842F90E0821B930B541710F0CF96F1
:1001D000089501970895FC01918D828D981761F023
:1001E000A28DAE0FBF2FB11D5D968C91928D9F5F3A
:1001F0009F73928F90E008958FEF9FEF0895FC0119
:10020000918D828D981731F0828DE80FF11D858DCB
:1002100090E008958FEF9FEF0895FC01918D228D5E
:10022000892F90E0805C9F4F821B91098F739927E3
:10023000089584EE91E00E940D0121E0892B09F4DC
:1002400020E0822F089580E090E0892B29F00E9421
:10025000190181110C9400000895FC01A48DA80FD0
:10026000B92FB11DA35ABF4F2C91848D90E00196F8
:100270008F739927848FA689B7892C93A089B18918
:100280008C91837080648C93938D848D981306C0B9
:100290000288F389E02D80818F7D80830895EF921D
:1002A000FF920F931F93CF93DF93EC0181E0888F30
:1002B0009B8D8C8D98131AC0E889F989808185FF00
:1002C00015C09FB7F894EE89FF896083E889F989A2
:1002D00080818370806480839FBF81E090E0DF91A4
:1002E000CF911F910F91FF90EF900895F62E0B8DF7
:1002F00010E00F5F1F4F0F731127E02E8C8D8E11B2
:100300000CC00FB607FCFACFE889F989808185FF18
:10031000F5CFCE010E942D01F1CFEB8DEC0FFD2F1B
:10032000F11DE35AFF4FF0829FB7F8940B8FEA89D3
:10033000FB8980818062CFCFCF93DF93EC01888DE2
:100340008823B9F0AA89BB89E889F9898C9185FD50
:1003500003C0808186FD0DC00FB607FCF7CF8C91DE
:1003600085FFF2CF808185FFEDCFCE010E942D0168
:10037000E9CFDF91CF910895833081F028F4813067
:1003800099F08230A9F008958730A9F08830C9F03B
:100390008430B1F4809180008F7D03C08091800013
:1003A0008F7780938000089584B58F7784BD0895FA
:1003B00084B58F7DFBCF8091B0008F778093B000A4
:1003C00008958091B0008F7DF9CFCF93DF93282FD0
:1003D00030E0F901E255FF4F8491F901E656FF4FF5
:1003E000D491F901EA57FF4FC491CC23A1F08111B8
:1003F0000E94BC01EC2FF0E0EE0FFF1FE458FF4F0E
:10040000A591B491EC91ED2381E090E009F480E0B6
:10041000DF91CF91089580E090E0FACF862F0C9481
:10042000E5011F93CF93DF93282F30E0F901E255C8
:10043000FF4F8491F901E656FF4FD491F901EA5735
:10044000FF4FC491CC23A9F0162F81110E94BC014B
:10045000EC2FF0E0EE0FFF1FEE58FF4FA591B49187
:100460008FB7F894EC91111108C0D095DE23DC937E
:100470008FBFDF91CF911F910895DE2BF8CF862F8C
:10048000642F0C941102CF93DF9390E0FC01E656A9
:10049000FF4F24918A579F4FFC0184918823C9F014
:1004A00090E0880F991FFC01E859FF4FA591B49186
:1004B000FC01EE58FF4FC591D49161110DC09FB75B
:1004C000F8948C91209582238C938881282328830B
:1004D0009FBFDF91CF910895623051F49FB7F89498
:1004E0003C91822F809583238C93E8812E2BEFCF34
:1004F0008FB7F894EC912E2B2C938FBFEACF862FD9
:10050000642F0C9443023FB7F8948091E0019091DE
:10051000E101A091E201B091E30126B5A89B05C0DD
:100520002F3F19F00196A11DB11D3FBFBA2FA92F72
:10053000982F8827BC01CD01620F711D811D911D6F
:1005400042E0660F771F881F991F4A95D1F70895DB
:100550008F929F92AF92BF92CF92DF92EF92FF92D3
:100560004B015C010E9483026B017C010E948302AB
:100570006C197D098E099F09683E734081059105BC
:10058000A8F321E0821A9108A108B10888EEC80EEC
:1005900083E0D81EE11CF11C81149104A104B10474
:1005A00029F7FF90EF90DF90CF90BF90AF909F9092
:1005B0008F9008952FB7F8946091DC017091DD0160
:1005C0008091DE019091DF012FBF08950F931F935B
:1005D000CF93DF93C82FD62F86E0C89FF001112458
:1005E000E756FD4F11A2878D90A181309105F1F062
:1005F00058F082309105F1F1039709F440C0DF9182
:10060000CF911F910F9108956623C9F361E070E0C7
:100610008C2F0E948C000E94DA026093F10270938A
:10062000F2028093F3029093F402E9CF0E94DA027F
:100630000091F1021091F2022091F3023091F40244
:10064000AB01BC01401B510B620B730B8091030388
:1006500090910403B0E0A0E084179507A607B707C0
:1006600048F462E070E08C2FDF91CF911F910F91E1
:100670000C948C0063E070E0D111C1CFF4CF70E036
:1006800060E0F1CF089520919101260F3327331FA9
:1006900021323105ECF42091B501FC0190E080E0BD
:1006A000243069F082E00895A09191012191AC017C
:1006B0004F585E4FA40FB52FB11D2C93019686178E
:1006C00098F380919101680F6093910180E0089503
:1006D00081E0089508958FEF9FEF08958FEF9FEFCA
:1006E000089580916A0190E091958195910908950E
:1006F000CF93DF93CB01EA01642F0E944303CE0125
:10070000DF91CF910895CF93DF931F92CDB7DEB7DE
:10071000698361E0CE0101960E94430381E090E08D
:100720000F90DF91CF91089590E080E00895CF93EE
:10073000DF93EC0160E08E810E94110261E08E8106
:100740000E94110260E08E810E9411028BE891E00C
:100750000197F1F7DF91CF910895CF92DF92EF9259
:10076000FF920F931F93CF93DF936C017C0187E07F
:10077000E80EF11CD0E0C0E0062F10E0B8010C2E0E
:1007800002C0759567950A94E2F76170F70181914F
:100790007F010E9411022196C430D10579F7C6016C
:1007A000DF91CF911F910F91FF90EF90DF90CF904D
:1007B0000C949703CF92DF92EF92FF920F931F93C7
:1007C000CF93DF93EC01F62E642F8C810E941102EF
:1007D0008D818F3F19F060E00E9411020F2D10E013
:1007E0008F8584FF25C06E0187E0C80ED11CF12CD7
:1007F000E12CB8010E2C02C0759567950A94E2F7BA
:100800006170F60181916F010E941102FFEFEF1AF2
:10081000FF0A88E0E816F10461F7CE01DF91CF917D
:100820001F910F91FF90EF90DF90CF900C94970362
:10083000B80184E0759567958A95E1F7CE010E942D
:10084000AD036F2DCE01DF91CF911F910F91FF90DE
:10085000EF90DF90CF900C94AD0340E0682F81E8DB
:1008600092E00C94DA03CF93DF93823029F49091D5
:100870009002986090939002809394021092950257
:1008800080E48093960280E18093970280E58093D4
:10089000980261E0809185020E9443028091860265
:1008A0008F3F19F061E00E94430261E0809187026E
:1008B0000E944302C1E8D2E09E012158324080915B
:1008C000900284FD0BC084E090E021962817390740
:1008D00044F461E08E810E944302EECF88E090E014
:1008E000F4CF8BE39DE00197F1F760E08091850202
:1008F0000E94110260E0809187020E9411028091A3
:1009000086028F3F19F060E00E94110280919002F0
:1009100084FD39C063E081E892E00E94AD03CBE43E
:10092000D6E4CE010197F1F763E081E892E00E94FE
:10093000AD032197F1F763E081E892E00E94AD03F7
:1009400083E592E00197F1F762E081E892E00E948E
:10095000AD038091900280620E942D0484E0809318
:1009600091028CE00E942D0481E00E942D048BE313
:100970009FE10197F1F782E08093920286E0DF9198
:10098000CF910C942D0480620E942D048BE496E498
:100990000197F1F78091900280620E942D0483E517
:1009A00092E00197F1F78091900280620E942D04FD
:1009B000D0CF41E00E94DA0381E090E00895FB018E
:1009C00001900020E9F73197AF01461B570BDC017E
:1009D000ED91FC910280F381E02D0994CF93DF9398
:1009E000682F84EE91E00E944F01EC0160E471E019
:1009F00084EE91E00E94DF048C0F9D1FDF91CF9168
:100A000008951F93CF93DF9385ED8093BC00809171
:100A10006D0190916E01A0916F01B09170010796E8
:100A2000A11DB11D23E0B695A795979587952A95A9
:100A3000D1F72091BC0024FD03C01092B50152C033
:100A400040916D0150916E0160916F017091700144
:100A5000452B462B472B69F30097A105B10541F0C3
:100A600025E32A95F1F700000197A109B109E1CF2B
:100A700080916C01C1E0C0936B01882399F1D09102
:100A8000B8001091BA008091BC008A7B8093BC00B2
:100A900060E082E10E94110260E083E10E941102A5
:100AA0001092B501C093B7011092B60161E082E1E6
:100AB0000E94110261E083E10E9411028091B9005D
:100AC0008E7F8093B9008091B9008D7F8093B900AB
:100AD00088E48093B80085E48093BC001093BA004A
:100AE000D093B800DF91CF911F9108951F920F927C
:100AF0000FB60F9211242F933F934F935F936F93F1
:100B00007F938F939F93AF93BF93EF93FF9384EE65
:100B100091E00E942D01FF91EF91BF91AF919F91C4
:100B20008F917F916F915F914F913F912F910F9096
:100B30000FBE0F901F9018951F920F920FB60F9235
:100B400011242F938F939F93EF93FF93E091F401E0
:100B5000F091F5018081E091FA01F091FB0182FDB5
:100B60001BC090818091FD018F5F8F732091FE01EA
:100B7000821741F0E091FD01F0E0EC51FE4F958FBE
:100B80008093FD01FF91EF919F918F912F910F9095
:100B90000FBE0F901F9018958081F4CF1F920F9277
:100BA0000FB60F9211242F933F938F939F93AF9380
:100BB000BF938091DC019091DD01A091DE01B091A5
:100BC000DF013091DB0123E0230F2D3758F501962B
:100BD000A11DB11D2093DB018093DC019093DD0109
:100BE000A093DE01B093DF018091E0019091E101DB
:100BF000A091E201B091E3010196A11DB11D809386
:100C0000E0019093E101A093E201B093E301BF9171
:100C1000AF919F918F913F912F910F900FBE0F90A9
:100C20001F90189526E8230F0296A11DB11DD2CF63
:100C30001F920F920FB60F9211242F933F934F9351
:100C40005F936F937F938F939F93AF93BF93EF9334
:100C5000FF938091B900887F803609F44AC0F0F58F
:100C6000883209F4A5C018F5803109F499C0B8F4A8
:100C7000882309F4F5C0883009F492C0FF91EF9100
:100C8000BF91AF919F918F917F916F915F914F91A4
:100C90003F912F910F900FBE0F901F9018958831A4
:100CA00009F486C0803251F78093B40114C08034B7
:100CB00009F49BC040F48033B9F38833F9F680938C
:100CC000B40185ECAEC0803509F483C0883509F4E1
:100CD00094C0883499F60E940105D0CF883909F470
:100CE0008AC038F5883729F050F4883611F08037FB
:100CF00029F683E08093B5011092B30155C088387E
:100D000009F479C0803919F0803809F0B7CF8091A3
:100D1000B301803208F06FC0E091B30181E08E0F23
:100D20008093B3018091BB00F0E0ED56FE4F8083CD
:100D30003BC0803B39F0D0F4803A09F477C0883A60
:100D400009F09CCF84E08093B5011092920110923B
:100D50009101F0E0E0E009958091910181110FC0CF
:100D600081E0809391011092710109C0803C09F4E7
:100D7000A8CF883C09F4A5CF883B09F07FCFE0914C
:100D8000920181E08E0F80939201F0E0EF58FE4FC8
:100D900080818093BB00909192018091910129C044
:100DA0008091DA018093BB0085EC8093BC0066CF14
:100DB0009091D9018091D801981758F5E091D90107
:100DC00081E08E0F8093D901F0E0E854FE4F8081DE
:100DD000E9CFE091D90181E08E0F8093D901809114
:100DE000BB00F0E0E854FE4F80839091D9018091E0
:100DF000D8019817C8F285E8D8CFE091D90181E0F1
:100E00008E0F8093D9018091BB00F0E0E854FE4F33
:100E100080838091B70181115ECF81E08093B6011C
:100E200084EA8093BC001092B50128CF85EC8093B2
:100E3000BC001092B5018091B301803230F4E09192
:100E4000B301F0E0ED56FE4F10826091B30170E007
:100E500083E991E0F0E0E0E009951092B3010ECF54
:100E60001092B40138CF1092E7011092E60188EE9B
:100E700093E0A0E0B0E08093E8019093E901A093B3
:100E8000EA01B093EB018CE191E09093E50180934E
:100E9000E40185EC90E09093F1018093F00184EC03
:100EA00090E09093F3018093F20180EC90E09093B6
:100EB000F5018093F40181EC90E09093F701809329
:100EC000F60182EC90E09093F9018093F80186ECB2
:100ED00090E09093FB018093FA011092FD01109233
:100EE000FE011092FF011092000210929B021092DC
:100EF0009F0210929E021092A0028AE391E09093CA
:100F00009A0280939902E5EBF2E010821482138238
:100F10001582369682E0E13FF807B9F784E091E068
:100F20009093FC028093FB0280E091E09093FE029C
:100F30008093FD0284E08093FF028093000328E009
:100F400031E03093FA022093F9022AE030E0309346
:100F500002032093010324EF31E030930403209334
:100F6000030310920703109206031092F5021092E9
:100F7000F6021092F7021092F802109205031092F6
:100F80008402109283022EE231E030938202209399
:100F900081029CE0909385029FEF909386029BE0F4
:100FA0009093870295E0909388028093890283E072
:100FB00080938A0282E080938B0210928C021092BE
:100FC0008D0210928E0210928F021092900281E098
:100FD0000C943304CF93DF93CDB7DEB7A1970FB650
:100FE000F894DEBF0FBECDBF789484B5826084BD17
:100FF00084B5816084BD85B5826085BD85B581601D
:1010000085BD80916E00816080936E00109281009A
:101010008091810082608093810080918100816055
:101020008093810080918000816080938000809116
:10103000B10084608093B1008091B00081608093A2
:10104000B00080917A00846080937A0080917A0069
:10105000826080937A0080917A00816080937A0028
:1010600080917A00806880937A001092C100E091AC
:10107000F401F091F50182E08083E091F001F091BC
:10108000F1011082E091F201F091F3018FEC808385
:101090001092FC01E091F801F091F90186E0808363
:1010A000E091F601F091F701808180618083E09109
:1010B000F601F091F701808188608083E091F6016C
:1010C000F091F701808180688083E091F601F091D2
:1010D000F70180818F7D808382E00E94330463E486
:1010E00071E081E892E00E94DF0467EB7BE080E042
:1010F00090E00E94A80261E571E081E892E00E9420
:10110000DF04412C512C3201439422242A94322CA6
:10111000E0919402E23008F05CC0E150F0E0EF575B
:10112000FD4F848980680E942D040E94DA0228EE17
:1011300033E040E050E00E940D0A19A28E010F5DDD
:101140001F4FCA01B9012AE030E040E050E00E94A0
:101150000D0A605DF80162938F012115310541058B
:10116000510579F7309729F0BF0181E892E00E949C
:10117000DF04F1E0F09305030E94DA020091F5022A
:101180001091F6022091F7023091F802AB01BC01F8
:10119000401B510B620B730B809101039091020372
:1011A000B0E0A0E084179507A607B70708F015C1BF
:1011B00010E08091FF02181770F4E091FB02F091AB
:1011C000FC02E10FF11D62E080810E9443021F5F7B
:1011D000F0CFE1E0A3CFF12C80910003F81608F0E6
:1011E00061C0CF2CD12CE091FD02F091FE02EC0DFC
:1011F000FD1D61E080810E944302E091FD02F091BB
:10120000FE02EC0DFD1D60E080810E941102D30101
:10121000C2010F2C04C0880F991FAA1FBB1F0A947C
:10122000D2F74C015C01A094B094E12C8091FF02B4
:10123000E81608F50E2D10E0E091FB02F091FC029B
:10124000E00FF11F80810E94E5010C5F1F4F000F2E
:10125000111FF801E756FD4F892B41F480819181E0
:101260008829992991838083E394E0CF80819181BB
:101270008A219B21F7CFE091FD02F091FE02EC0D57
:10128000FD1D61E080810E9411028091FD0290911C
:10129000FE02C80ED91E60E0F60180810E94430262
:1012A000F3949ACF09E912E0F801878D90A1892B78
:1012B00021F4148E368E258E11A2369652E0E53D2D
:1012C000F50799F7F12C8091FF02F81608F053C04A
:1012D000E12CCF2CD12CCC0CDD1CC6018F559D4FA1
:1012E0006C0120910003E21608F043C0F601608112
:1012F00071810E2C02C0769567950A94E2F7F29EF2
:10130000900111242E0D311DE9E9F2E080E0458DB8
:10131000568D2417350709F47EC08F5F36968A30C4
:10132000B1F760FF24C0E9E9F2E090E080E0448D8D
:10133000411118C0E091F902F091FA02E20FF31F97
:10134000408156E0589FF001599FF00D1124E75657
:10135000FD4F448F368F258F10A2178E61E00E94BB
:10136000E60205C0019636968A30910501F7E394AE
:10137000B8CFF394A8CFF12CF80181A18111F82EF8
:101380000A5F1F4FF2E0053D1F07B1F70E94DA0226
:101390006093F5027093F6028093F7029093F8023F
:1013A000FF20D9F08091BA028823B9F08091B80269
:1013B0009091B902019789F41091B502111110C0F2
:1013C00080E090E0892B09F4A3CE0E9419018823C4
:1013D00009F49ECE0E9400009BCE10920503F0CF30
:1013E000812F0E94EE0441E0612F81E892E00E948B
:1013F000DA0368EE73E080E090E00E94A80211300A
:10140000F9F681E00E94EE046EE571E081E892E079
:101410000E94DF04D5CF6170A2CFA1E21A2EAA1BD1
:10142000BB1BFD010DC0AA1FBB1FEE1FFF1FA21794
:10143000B307E407F50720F0A21BB30BE40BF50B91
:10144000661F771F881F991F1A9469F7609570951A
:10145000809590959B01AC01BD01CF010895EE0FE1
:10146000FF1F0590F491E02D0994F894FFCF050437
:101470000302090807063132334134353642373822
:1014800039432A302344000000004F01AF00DC0044
:101490009C010D01EB00FF0000000000D904AF002B
:1014A00094034203000000007F023F020E020D0A77
:1014B000004D696E6920436F6D70757465720031FF
:1014C0002E30204669726D5761726500312E3020D2
:0814D0004163636573730000C2
:107E0000112484B714BE81FFF0D085E080938100F7
:107E100082E08093C00088E18093C10086E0809377
:107E2000C20080E18093C4008EE0C9D0259A86E02C
:107E300020E33CEF91E0309385002093840096BBD3
:107E4000B09BFECF1D9AA8958150A9F7CC24DD24C4
:107E500088248394B5E0AB2EA1E19A2EF3E0BF2EE7
:107E6000A2D0813461F49FD0082FAFD0023811F036
:107E7000013811F484E001C083E08DD089C08234E0
:107E800011F484E103C0853419F485E0A6D080C0E4
:107E9000853579F488D0E82EFF2485D0082F10E0AE
:107EA000102F00270E291F29000F111F8ED06801E7
:107EB0006FC0863521F484E090D080E0DECF843638
:107EC00009F040C070D06FD0082F6DD080E0C81688
:107ED00080E7D80618F4F601B7BEE895C0E0D1E017
:107EE00062D089930C17E1F7F0E0CF16F0E7DF06D8
:107EF00018F0F601B7BEE89568D007B600FCFDCFD4
:107F0000A601A0E0B1E02C9130E011968C91119780
:107F100090E0982F8827822B932B1296FA010C0160
:107F200087BEE89511244E5F5F4FF1E0A038BF0790
:107F300051F7F601A7BEE89507B600FCFDCF97BE46
:107F4000E89526C08437B1F42ED02DD0F82E2BD052
:107F50003CD0F601EF2C8F010F5F1F4F84911BD097
:107F6000EA94F801C1F70894C11CD11CFA94CF0C13
:107F7000D11C0EC0853739F428D08EE10CD085E9AC
:107F80000AD08FE07ACF813511F488E018D01DD067
:107F900080E101D065CF982F8091C00085FFFCCF94
:107FA0009093C60008958091C00087FFFCCF809118
:107FB000C00084FD01C0A8958091C6000895E0E648
:107FC000F0E098E1908380830895EDDF803219F02E
:107FD00088E0F5DFFFCF84E1DECF1F93182FE3DFCA
:107FE0001150E9F7F2DF1F91089580E0E8DFEE27F6
:047FF000FF270994CA
:027FFE00040479
:00000001FF
